:10000000010A6400BA0A71007200010C3F001F026D
:10001000A601CA0C30000C0AF0020B0A0F0A010CF0
:100020003C007D001C02F1010306B2021D02F20138
:1000300012023F0011023E001F02800F3C00800CA4
:100040009C004307250A960C9E000307280A290AEC
:10005000050A000871007200010C3F001F02A60192
:10006000E10C3000F002320A010C3C007D001C0261
:10007000F1010306B2021D02F20112023F00110259
:100080003E001F02800F3C00810C9C0043074A0A7F
:100090002C0C9E0003074D0A4E0A2C0A0008710022
:1000A0007200010C3F001F02A601BD0C3000F002DF
:1000B000570A010C3C007D001C02F1010306B2024C
:1000C0001D02F20112023F0011023E001F02800FCA
:1000D0003C00810C9C0043076F0A2C0C9E00030718
:1000E000720A730A510A000871007200CA0C3000CB
:1000F000790AF002780A7C0A010C3C007D001C029F
:10010000F1010306B2021D02F20112023F001102C8
:100110003E001F02800F3C00800C9C004307920AA7
:100120004B0C9E000307950A960A760A0008710098
:100130007200CA0C30009C0AF0029B0A9F0A010C54
:100140003C007D001C02F1010306B2021D02F20117
:1001500012023F0011023E001F02800F3C00800C83
:100160009C004307B50A960C9E000307B80AB90A1B
:10017000990A0008FE09FB09FD09FA09F909FC09B9
:10018000FA09FB09F909FA09F909FC09FA09BB0A94
:0C019000000A080C0600DF0C020000084A
:0C01F200740A2A0A030A4F0A970AC90A75
:08020000FF0FFF0FFF0FFF0FBE
:021FFE00FB0FD7
:00000001FF
