:10000000010A780079007A007B006400070AFE0983
:100010001B0237001A023600760001023700730017
:10002000010234007500700001023100160CFD0958
:100030007000B00201023100160CFD09010C3F00F6
:100040001F02F501FE0C95000307270A280A130A70
:10005000140C36001E0C33007500700001023100D4
:10006000160CFD097000B00201023100160CFD09EA
:10007000010C3F001F02F501FE0C95000307410A29
:10008000420A2D0A7500700001023100160CFD09AC
:100090007000B00201023100160CFD09010C3F0096
:1000A0001F02F501FE0C95000307570A580A430A80
:1000B0007500700001023100160CFD097000B002DD
:1000C00001023100160CFD09010C3F001F02F50171
:1000D000FE0C950003076D0A6E0A590A7500700040
:1000E00001023100160CFD097000B002010231005E
:1000F000160CFD09010C3F001F02F501FE0C9500D6
:100100000307830A840A6F0A76007300120A000A42
:10011000320011023F001202240000023E001202CF
:100120003C00010CDC0124000002DE019F014307BA
:100130009A0A9B0ABA0A1202240000024306A10A84
:10014000A20ABA0A90023F00010C3E00A90A030469
:100150007E03FF02A70A1E023F001F02A601110232
:10016000210011023F0012023C00010CDC012400BE
:100170001F0220000008080C0600D40C0200000832
:0401FA00880ABB0AAA
:08020000FF0FFF0FFF0FFF0FBE
:021FFE00FB0FD7
:00000001FF
