:10000000010A6400030AFE09100C37001F0C3900B6
:10001000190C3300170CFC0977007900190C330018
:10002000170CFC09190C3300170CFC09190C3300D0
:10003000170CFC090A0C37007900190C3300170C57
:10004000FC0977007900190C3300170CFC09190C16
:100050003300170CFC09190C3300170CFC09080CB1
:1000600037007900190C3300170CFC097700790070
:10007000190C3300170CFC090A0C37007900190C15
:100080003300170CFC0977007900190C3300170CAA
:10009000FC09040A000A320011023F001202240087
:1000A00000023E0012023C00010CDC0124000002B0
:1000B000DE019F0143075D0A5E0A7D0A12022400E9
:1000C00000024306640A650A7D0A90023F00010CA3
:1000D0003E006C0A03047E03FF026A0A1E023F0010
:1000E0001F02A6011102210011023F0012023C0072
:1000F000010CDC0124001F02200000083400750000
:1001000076007000010231001402FD097000B00297
:10011000010231001302FD09010C3C007D001C02AC
:10012000F5010306B6021D02F601030C9600520CFF
:100130004306950003079D0A9E0A810A0008080CE1
:080140000600D60C02000008C5
:0601F8007E0A4B0A9F0A7B
:08020000FF0FFF0FFF0FFF0FBE
:021FFE00FB0FD7
:00000001FF
