:10000000010A7700780079007A006400330A320030
:1000100011023F001202240000023E0012023C00C6
:10002000010CDC0124000002DE019F014307190AD4
:100030001A0A320A90023F00010C3E00210A030412
:100040007E03FF021F0A1E023F001F02A6011102CB
:10005000210011023F0012023C00010CDC012400CF
:100060001F0220000008FE091A02340019023300A2
:10007000320C33000102340018023600170235003A
:10008000640C350001023600700001023100130CCF
:10009000FD097000B00201023100150CFD09440A8F
:0C00A000000A080C0600D50C0200000845
:0401FA00070A510A95
:08020000FF0FFF0FFF0FFF0FBE
:021FFE00FB0FD7
:00000001FF
