:10000000010A6400570A320011023F001202240064
:1000100000023E0012023C00010CDC012400000240
:10002000DE019F014307150A160A350A1202240051
:10003000000243061C0A1D0A350A90023F00010C0B
:100040003E00240A03047E03FF02220A1E023F0030
:100050001F02A6011102210011023F0012023C0002
:10006000010CDC0124001F02200000083400750090
:1000700076007000010231001402FD097000B00228
:10008000010231001302FD09010C3C007D001C023D
:10009000F5010306B6021D02F601170C9600700C5E
:1000A000430695000307550A560A390A0008FE0957
:1000B000320C3700140C3900190C3300170CFC09F2
:1000C000190C3300170CFC09020C3700020C390024
:1000D000190C3300170CFC09190C3300170CFC0920
:0E00E000580A000A080C0600D50C02000008A1
:0601F800360A030A720A38
:08020000FF0FFF0FFF0FFF0FBE
:021FFE00FB0FD7
:00000001FF
