:10000000010A6400030AFE091E0C33007500760025
:10001000700001023100130CFD09010C3C007D0051
:100020001C02F5010306B6021D02F601170C96002C
:10003000700C4306950003071E0A1F0A080A140CD9
:10004000330075007600700001023100130CFD09C9
:10005000010C3C007D001C02F5010306B6021D02E6
:10006000F601170C9600700C430695000307390A39
:100070003A0A230A040A000A320011023F0012025F
:10008000240000023E0012023C00010CDC012400AE
:100090000002DE019F0143074E0A4F0A6E0A120258
:1000A000240000024306550A560A6E0A90023F00D9
:1000B000010C3E005D0A03047E03FF025B0A1E0280
:1000C0003F001F02A6011102210011023F0012028F
:1000D0003C00010CDC0124001F0220000008080C79
:0800E0000600D40C0200000828
:0401FA003C0A6F0A42
:08020000FF0FFF0FFF0FFF0FBE
:021FFE00FB0FD7
:00000001FF
