:10000000010A6400030AFE091E0C35001E0C3700AD
:10001000760078001E0C35001E0C3700730074004B
:10002000700001023100150CFD097000B0020102E0
:100030003100170CFD09010C3C007D001C02F3018E
:100040000306B4021D02F401170C9400700C430661
:10005000930003072C0A2D0A100A140C3500140C07
:10006000370073007400700001023100150CFD09A7
:100070007000B00201023100170CFD09010C3C00B8
:100080007D001C02F3010306B4021D02F401170CEB
:100090009400700C4306930003074F0A500A330A7A
:1000A0000A0A000A320011023F0012022400000274
:1000B0003E0012023C00010CDC0124000002DE01C3
:1000C0009F014307640A650A840A120224000002A1
:1000D00043066B0A6C0A840A90023F00010C3E0042
:1000E000730A03047E03FF02710A1E023F001F020F
:1000F000A6011102210011023F0012023C00010C76
:10010000DC0124001F0220000008080C0600D40CAB
:0401100002000008E1
:0401FA00520A850A16
:08020000FF0FFF0FFF0FFF0FBE
:021FFE00FB0FD7
:00000001FF
